:020000040800F2
:200000002027002065010008050B00084D090008010B000847060008C91B00080000000040
:20002000000000000000000000000000E31700084B060008000000001D0B000873190008A1
:200040007F0100087F0100087F0100087F0100087F0100087F0100087F0100087F01000860
:200060007F0100087F0100087F0100087F0100087F0100087F0100087F0100087F01000840
:200080007F0100087F0100087F0100087F0100087F0100087F0100087F0100087F01000820
:2000A0007F0100087F0100087F0100087F0100087F0100087F0100087F0100087F01000800
:2000C0007F0100087F0100087F0100087F0100087F0100087F0100087F0100087F010008E0
:2000E0007F0100087F0100087F0100087F0100087F0100087F0100087F0100087F010008C0
:200100007F0100087F0100087F0100087F0100087F0100087F0100087F0100087F0100089F
:200120007F0100087F0100087F0100087F010008DFF80CD000F006FA00480047A134000890
:2001400020270020EFF30980704780F309887047EFF30880704780F30888704740BA7047CF
:20016000C0BA70470648804706480047FEE7FEE7FEE7FEE7FEE7FEE7FEE7FEE7FEE7FEE7B2
:20018000751900083101000840EA01039B0703D009E008C9121F08C0042AFAD203E011F853
:2001A000013B00F8013B521EF9D2704780EA010210B502F00043400022D04A001FD0010EFC
:2001C00001EB1261C0F35600C2F3560240F4000042F40002A0FB022000047F39140400D0DD
:2001E000401C50EA124001D44000491EC2B20C0604EBD010401C4008802A02D003E0002023
:2002000010BD20F00100002900DA0020184310BD30B480EA010202F0004530F0004221F0BA
:20022000004013D090B1C30DD40DC2F31601C0F31600E41A41F4000140F400027D34914226
:2002400001D3641C00E04900002C02DA30BC002070474FF400000023914201D3891A034360
:2002600040084FEA4101F7D151B1914202D14FF0004105E002D24FF0010101E06FF001018F
:2002800003EBC450284430BC00F0C7B82DE9FE4F81EA030404F0004421F0004100944FF063
:2002A000000B23F0004350EA01045ED052EA03045BD0C3F30A54C1F30A552C44A4F2F334AE
:2002C0000194A0FB0254C1F3130141F48011C3F3130343F4801301FB024400FB034E840A58
:2002E000970A44EA815447EA8357A4FB076802958D0A05FB07854FEA932C04FB0C54270504
:20030000029D4FEA065847EA1637B5EB08056EEB070C870E920E47EA811742EA8312A7FBAF
:200320000201B6EB0B0164EB00042B0D43EA0C335E1844EB1C50DA465146E7FB0201C5F3B1
:2003400013044FEA0B3343EA14534FEA0432019C43EA0603A4F10C040294009CCDE900B4F8
:2003600000F0A1F803B0BDE8F08F00200146F9E796230022114600F059B820F00040C10D85
:20038000C0F3160040F400007F2901DA00207047962903DCC1F19601C840704796398840C9
:2003A0007047C1F30A5210B5C1F3130140F2FF3341F480119A4201DA002010BD40F2334373
:2003C0009A42A2F2334203DC524200F016F810BD904010BD00F0004230F000400AD0C10D23
:2003E00001F56071C0F3160042EA0151C208400711437047002001467047202A04DB203A32
:2004000021FA02F00021704721FA02F3D040C2F1200291400843194670470029A8BF704789
:20042000401C490008BF20F00100704710B4B0FA80FC00FA0CF050EA010404BF10BC704723
:2004400049B1CCF1200421FA04F411FA0CF118BF012121430843A3EB0C01CB1D4FEA0061E1
:200460004FEA102042BF002010BC704700EBC35010440029A4BF10BC7047401C490008BFA2
:2004800020F0010010BC704710B5141E73F1000408DA401C41F1000192185B411A4301D183
:2004A00020F0010010BD2DE9F04D92469B4611B1B1FA81F202E0B0FA80F22032904600F05C
:2004C00053F804460F4640EA0A0041EA0B0153465A46084313D0114653EA010019D0C8F129
:2004E00040025046FFF789FF05460E4650465946424600F039F8084305D0012004E020469E
:200500003946BDE8F08D0020054346EAE0762C4337430A986305E40AA0EB08000022FD0AAF
:2005200044EA47540A3002D500200146E9E7010510196941DDE9084500196941BDE8F04D19
:20054000A2E70000064C074D06E0E06840F0010394E8070098471034AC42F6D3FFF7ECFDCE
:2005600088410008A8410008202A04DB203A00FA02F1002070479140C2F1200320FA03F3BB
:2005800019439040704770B58C1810F8015B15F0070301D110F8013B2A1106D110F8012BE0
:2005A00003E010F8016B01F8016B5B1EF9D12B0705D40023521E0DD401F8013BFAE710F89F
:2005C000013BCB1A921C03E013F8015B01F8015B521EF9D5A142D8D3002070BD2DE9F0414D
:2005E00004460D46164600F08FF84FF0E020006920F001004FF0E0210861B4F1006F02D93A
:200600004FF0006001E04FF000508046A4EB08073946404600F078FA2846FFF79CFDB0470C
:20062000BDE8F08108B50023009307E0BDF80030C154BDF800305B1C9BB20093BDF800302F
:200640009342F3DB08BD00BFFEE77047014642F228324A434FF0E0235A6100229A61012238
:200660001A6100BF4FF0E022106900F001021AB100F48032002AF5D000224FF0E0231A6154
:200680009A61704730B5054604244FF4302000F073F80446042C19D10D48006940F002000E
:2006A0000B49086108464561006940F0400008614FF4302000F060F80446052C06D00448CF
:2006C000006941F6FD71084001490861204630BD0020024004200B49C96801F0010109B106
:2006E00001200EE00749C96801F0040109B1022007E00449C96801F0100109B1032000E074
:2007000004207047002002400348006940F0800001490861704700000020024070B50546FC
:200720000E460424E00200F027F80446042C13D10A48006940F00100084908612E80E002B8
:2007400000F01AF80446052C06D00448006941F6FE71084001490861204670BD00200240FB
:200760000248034948600348486070472301674500200240AB89EFCD00B502460423FFF755
:20078000A9FF034603E0FFF7A5FF0346521E012B01D1002AF7D102B90523184600BD2DE92E
:2007A000F041024600250026002000230024002791F803C00CF00F0591F803C00CF0100C27
:2007C000BCF1000F03D091F802C04CEA050591F800C0BCF1000F31D0146800202BE04FF013
:2007E000010C0CFA00F3B1F800C00CEA03069E4220D183004FF00F0C0CFA03F7BC4305FADF
:2008000003FC4CEA040491F803C0BCF1280F06D14FF0010C0CFA00FCC2F814C00AE091F845
:2008200003C0BCF1480F05D14FF0010C0CFA00FCC2F810C0401C0828D1D31460B1F800C036
:20084000BCF1FF0F34DD546800202EE000F1080C4FF0010808FA0CF3B1F800C00CEA03062C
:200860009E4221D183004FF00F0C0CFA03F7BC4305FA03FC4CEA040491F803C0BCF1280F5E
:2008800005D100F1080C08FA0CF8C2F8148091F803C0BCF1480F07D100F1080C4FF00108B4
:2008A00008FA0CF8C2F81080401C0828CED35460BDE8F081F0B50A4600230024002100256F
:2008C00000F00046B6F1004F02D11D4EF16901E01B4E7168C0F3034583B200F44016B6F50C
:2008E000401F08D121F07061154E766826F07066134F7E6012E000F48016B6F5801F06D1D4
:20090000032606FA05F4A14341F0706106E0460D360103FA06F6B14341F0706122B1460D4A
:20092000360103FA06F6314300F00046B6F1004F02D1034EF16101E0014E7160F0BD0000C3
:2009400000000140416170470161704700BFFEE710B5012000F036F80220FFF777FE10BDE2
:2009600010B53220FFF772FE302000F02BF80C2000F028F8012000F025F8022000F022F801
:20098000062000F01FF80A20FFF760FE10BD70B504460D460CB980240AE0012C01D1902417
:2009A00006E0022C01D1882402E0032C00D198246019C6B2304600F005F8082001F065FD38
:2009C00070BD000010B5044601200D49086000BF00F0B6F80028FBD1F82000F003FF04F0AD
:2009E000F00000F0FFFE2107080E00F0FBFE00BF00F0A6F80028FBD10149086010BD000033
:200A00009401214210B5044601200D49086000BF00F096F80028FBD1FA2000F0E3FE04F0E0
:200A2000F00000F0DFFE2107080E00F0DBFE00BF00F086F80028FBD10149086010BD000052
:200A40009401214208B50121084600F069F801212648FFF72FFF01210C2000F061F84FF492
:200A60000040ADF8000010208DF8030003208DF8020069461E48FFF792FE01201D490860A5
:200A80000121102000F04CF81220ADF8000010208DF8030003208DF8020069461648FFF794
:200AA0007EFE00201549C1F884014FF48060ADF8000048208DF8030069460F48FFF76FFEDD
:200AC0000121042000F02CF8F020ADF8000010208DF8030003208DF8020069460448FFF7B4
:200AE0005EFE012003492039086008BD0002300000080140BC012142001001400000224257
:200B000000BFFEE770470000024A0A400243024B1A60704780FFFF1F08ED00E070470000F8
:200B200029B1064A92690243044B9A6104E0034A92698243014B9A617047000000100240C0
:200B400010B5FC2000F04EFE00F008F804467F2C01DD012010BD0020FCE7000070B500247B
:200B600013E00020184908600A2001F08EFC01201649C1F8980114488838006808B1681C61
:200B8000C5B26806050E601CC4B2082CE9DB002413E000200C490860012001F076FC0120DA
:200BA0000A49C1F8980108488838006808B1701CC6B27006060E601CC4B2082CE9DB06EAF7
:200BC000050000F00F0070BD980121420000214210B5012002490860FF2000F07BFB10BD9A
:200BE000BC0121427FB504460025FF264FF400413E48FFF7A7FEFF2200210A2000F080FB91
:200C0000002000F009FA98B9FE2000F005FA40B900BF04E000F0E2FA0DF805006D1C102D2B
:200C2000F8D3FF2000F020FCFF2000F01DFC00264FF400412D48FFF787FEFF2000F014FCDD
:200C40009DF8000020709DF801000002608060889DF80210084360809DF8030000066060DF
:200C600060689DF8041040EA0140606060689DF8051040EA0120606060689DF8061008439D
:200C800060609DF8070020729DF8080060729DF809000006E060E0689DF80A1040EA0140B1
:200CA000E060E0689DF80B1040EA0120E060E0689DF80C100843E060207C9DF80D1040EA75
:200CC000111020749DF80D000007000D6082608A9DF80E10084360829DF80F00400820757C
:200CE00001206075304604B070BD0000000801402DE9FF4104460025FF274FF4004199480E
:200D0000FFF720FEFF220021092000F0F9FA002000F082F9A0B9FE2000F07EF940B900BF50
:200D200004E000F05BFA0DF805006D1C102DF8D3FF2000F099FBFF2000F096FB002703E0A2
:200D4000384604B0BDE8F0814FF400418548FFF7FBFDFF2000F088FB9DF8000080092070CC
:200D60009DF80000C0F3830060709DF8000000F00300A0707C48006840B92078012802D187
:200D80007A49087002E00020784908709DF80100E0709DF8020020719DF8030060719DF8D1
:200DA00004000001E080E0889DF8051040EA1110E0809DF8050000F00F0020729DF806004B
:200DC000C00960729DF80600C0F38010A0729DF80600C0F34010E0729DF80600C0F300103A
:200DE0002073002060736148007888B99DF806008007000D206120699DF8071040EA81007B
:200E0000206120699DF8081040EA911020610FE09DF807008006800A206120699DF808107D
:200E200000EB0120206120699DF80910084420619DF80800C0F3C20004F8140F9DF8080053
:200E400000F0070060709DF809004009A0709DF80900C0F38200E0709DF809008007400F3D
:200E6000207120799DF80A1040EAD11020719DF80A00C0F3801060719DF80A008006400ED7
:200E8000A071A0799DF80B1040EAD110A0719DF80B0000F07F00E0719DF80C00C009207200
:200EA0009DF80C00C0F3411060729DF80C00C0F38200A0729DF80C008007000FE072E07AF0
:200EC0009DF80D1040EA9110E0729DF80D00C0F340102073002060739DF80D0000F0010085
:200EE000A0739DF80E00C009E0739DF80E00C0F3801020749DF80E00C0F3401060749DF897
:200F00000E00C0F30010A0749DF80E00C0F38100E0749DF80E0000F0030020759DF80F00F2
:200F2000400860750120A075143C0F480068032816D20E480078012801D10820207620692C
:200F4000461C207E801C012101FA00F04643217A01208840464304480068401C024908608F
:200F60003846EEE600080140080000200000002070B50446FF252046FFF7BAFE0546FF2D70
:200F800003D12046FFF7B4FE054604F12C00FFF729FE05462069401C6064217E606C891CE2
:200FA00001228A4050436064217A01208840A064D4E911014843606403480068401C0249ED
:200FC0000860284670BD00000400002070B5002518E000F003F9044604F01F04052C04D056
:200FE0000B2C04D00D2C06D103E0052605E00B2070BD0D20FCE7FF2600BF00BF052E00D1D4
:2010000002E06D1C402DE4D900BF00BF00F0E6F80028FBD02046EBE770B5054640F2FF64BF
:2010200000E0641E00F0DAF8A84201D0002CF8D10CB9FF2070BD0020FCE770B505464FF613
:20104000FF7401E0601E84B2FF2000F043F9A84201D0002CF6D10CB9FF2070BD0020FCE77B
:20106000F8B5002504E0FF2000F034F9681C85B20A2DF8DB142600BF95220021084600F0AA
:2010800062F90446012C04D0301EA6F101018EB2F2D1002050490870012C4AD187224FF45B
:2010A000D571082000F04FF9012847D1002506E0FF2000F00FF90DF80500681C85B2042D31
:2010C000F6DB9DF80200012879D19DF80300AA2875D14FF6FE7600BF01220021372000F082
:2010E00032F901229107292000F02DF9044624B1301EA6F101018EB2EED1002E5FD0012226
:2011000000213A2000F01FF9002858D1002506E0FF2000F0DFF80DF80500681C85B2042D14
:20112000F6DB9DF8000000F0400018B106202A49087044E004202849087040E001220021AA
:20114000372000F000F901220021292000F0FBF80446012C17DC02201F4908704FF6FE76BA
:2011600000BF01220021372000F0EDF801220021292000F0E8F80446BCB1301EA6F1010145
:201180008EB2EED111E00120134908704FF6FE7600BF01220021104600F0D5F8044624B17C
:2011A000301EA6F101018EB2F3D12EB101225102102000F0C8F810B1002007490870FFF770
:2011C00007FD0548007808B10020F8BD0CB12046FBE7AA20F9E700000C00002010B50024F4
:2011E00000BF02210A4800F035FA0028F9D0FF21074800F03BFA00BF0121054800F02AFAD5
:201200000028F9D0024800F02EFAC4B2204610BD003800402DE9F04106460F4615461948B6
:201220000078062800D07F02012D0CD101223946112000F088F80446FCB96902304600F099
:2012400023F8044619E001223946122000F07BF8044600BF4FF40071304600F015F804467F
:2012600006F50076681EC0B2051E01D0002CF1D0012200210C2000F066F8FFF7A9FC204665
:20128000BDE8F0810C00002070B504460D46FE20FFF7D3FE08B1012070BD04E0FF2000F06B
:2012A000A9F92070641C281EA5F101018DB2F5D1FF2000F00FF8FF2000F00CF80020EBE77E
:2012C00010B500F049F901200149086010BD0000BC01214210B50446204600F08BF910BDA1
:2012E00010B500200549086000F069F808B9002010BDFFF76DFC0120FAE70000BC012142D3
:201300002DE9FC4106460C461746002546F040008DF80000200E8DF80100200C8DF80200F8
:20132000200A8DF80300E0B28DF804008DF8057000BF04E01DF8050000F096F86D1C062DEF
:20134000F8D3BDE8FC812DE9F04105460C4617464FF00008FFF73CFCFFF7C2FF10B1FF2053
:20136000BDE8F08145F04000FFF7B4FF200EFFF7B1FFC4F30740FFF7ADFFC4F30720FFF7F1
:20138000A9FFE0B2FFF7A6FF3846FFF7A3FF0C2D02D1FF20FFF79EFF4FF01F0800BFFF2060
:2013A000FFF798FF064606F0800030B1B8F10000A8F1010101F0FF08F1D13046D0E710B50D
:2013C000002400BFFF20FFF785FFFF2801D1002010BD641C6FF07F408442F3D30120F7E782
:2013E0002DE9F04104460D46164600274FF0FF084FF400411A48FFF7A5FA1A4800780128C2
:2014000000D16D0AFF2229461820FFF779FF0020FFF702FEC0B9FF2000F026F8FE2000F084
:2014200023F8002704E0207800F01EF8641C7F1CB742F8D3FFF7D2FEFFF7D0FEFFF7C6FDC6
:20144000052801D14FF000084FF400410448FFF77BFAFF2000F008F84046BDE8F081000060
:20146000000801400000002010B5044600BF02210A4800F0EFF80028F9D02146074800F052
:20148000F5F800BF0121054800F0E4F80028F9D0024800F0E8F8C0B210BD000000380040A3
:2014A0002DE9F04704460D46174698464FF0000900264FF0FF0A4FF400412548FFF742FA2E
:2014C00036E024480078012806D1A819410AFF221820FFF715FF04E0A919FF221820FFF7AE
:2014E0000FFF0020FFF798FD10B1FF20BDE8F087FF20FFF7B9FFFE20FFF7B6FF4FF0000959
:2015000005E02078FFF7B0FF641C09F10109B945F7D306F50076FFF761FEFFF75FFEFFF74E
:2015200055FD052802D14FF0000A01E04FF0FF0AB8F10000A8F10108C3D14FF40041044838
:20154000FFF702FAFF20FFF78FFF5046CEE7000000080140000000201CB500BF2148C06920
:2015600040F480401F49C8610846C06900F48040009000BF012144F20800FFF7D1FA4FF408
:201580006040ADF8040018208DF8070003208DF8060001A91448FFF702F94FF4604112485B
:2015A000FFF7D2F90020114908804FF482704880002088800220C880012008814002488124
:2015C000282088810020C88107200882084800F04FF80121064800F031F8FF2000F00AF87F
:2015E0001CBD000000100240000C01408C0600200038004070B50446002500BF02210E487D
:2016000000F028F80028F9D021460B4800F02EF8002505E0681CC5B2C82D01DD002070BDD4
:201620000121054800F016F80028F3D0024800F01AF8C0B2F3E700000038004021B10288E6
:2016400042F04002028004E002884FF6BF731A40028070470246002013890B400BB10120F0
:2016600000E0002070470146888970478181704710B50022028802F441520B884C88234324
:201680008C882343CC8823430C8923434C8923438C892343CC8923431A430280838B4FF27C
:2016A000FF74234083830B8A038210BD30B503460C461546002207E0184600F008F824F819
:2016C00012009B1C501C82B2AA42F5DB30BD0146088870472DE9F05F80468A461746B8F169
:2016E000006F02D33348804501D3BDE8F09FFFF737F8A8F1006B4FEADB25CBF34909C9F52E
:201700008064A74200DC3C464DE04FF0006101EBC5204A142849FFF7C9FF00260BE009EB6E
:201720000600254931F810004FF6FF71884200D003E0701C86B2A642F1DB00BFA6421BDAB6
:201740004FF0006101EBC520FEF79CFF002608E03AF8160006EB0901174A22F81100701C1F
:2017600086B2A642F4DB4FF0006101EBC5204A14114900F023F804E022465146404600F0ED
:201780001DF8A74200D10FE06D1C4FF000090AEB440AA044381B87B2B7F5806F02DD4FF44A
:2017A000806400E03C46B0E700BFFEF7ADFF00BF9BE70000000008088C1500202DE9F04193
:2017C00005460E461746002407E036F814102846FEF7A4FFAD1C601C84B2BC42F5DBBDE8BC
:2017E000F081704730B50446002518E004F0800018B101200B49086002E00020094908609F
:2018000000200849083108600A2000F03EFE01200549C1F898016006040E681CC5B2082DF7
:20182000E4DB30BD900121420000214210B500F001F810BD0CB50020019000903348006845
:2018400040F480303149086000BF3048006800F4003000900198401C0190009818B90198E7
:20186000B0F5A06FF1D12948006800F4003010B10120009001E0002000900098012843D11D
:201880002348006840F01000214908600846006820F0030008600846006840F002000860E2
:2018A0001A484068194948600846406848600846406840F4806048600846406820F47C102E
:2018C00048600846406840F4E81048600846006840F08070086000BF0C48006800F000707D
:2018E0000028F9D00948406820F00300074948600846406840F00200486000BF0348406871
:2019000000F00C000828F9D10CBD0000001002400020024010B504462078FFF773F8607874
:20192000FFF770F810BD2DE9F04106460F461546002439463046FFF72AF815E02819FFF7DC
:20194000E9FFA01CC4B2022101FB0740C11700EB11710911A0EB011131B9711CC9B20E46C5
:2019600008460021FFF713F8285D0028E6D1BDE8F081704710B51148006840F001000F49B7
:201980000860084640680E4908400C494860084600680C490840094908600846006820F476
:2019A000802008600846406820F4FE0048604FF41F008860FFF73AFF10BD000000100240D7
:2019C0000000FFF8FFFFF6FE70B505460C4605F00F0141F0B00000F047F8102141EA1410C7
:2019E00000F042F804F00F0000F03EF870BD70B505460E46144600BF14F8012B314628466D
:201A000000F05AF8701CC6B20F2E05DD681CC5B20026032D00DD02E020780028ECD100BF15
:201A200070BD000070B5002418E000200D49086004F1B001C8B200F017F8102000F014F80F
:201A4000002000F011F8002504E0002000F020F8681CC5B2842DF8DB601CC4B2092CE4DBD7
:201A600070BD00009C01214210B504460020064908600649C1F890012046FFF7BBFD012085
:201A80000149086010BD00009C0121420000224210B5044600200649086001200549C1F855
:201AA00090012046FFF7A6FD01200149086010BD9C012142000022422DE9F04706460D46A6
:201AC00017460024A046A7F120004FEA001800BF11E08122A2EBC502121BD1B27206100EA9
:201AE000FFF772FF08EB0400114911F800904846FFF7CEFF641C082CEBDB002414E081220F
:201B0000A2EBC502121BD1B2012202EB4602D0B2FFF75AFF08EB04000830054911F8009082
:201B20004846FFF7B5FF641C082CE8DBBDE8F0878D00002070B505460C4600200749086093
:201B40000749C1F890012846FFF754FD2046FFF751FD01200149086070BD00009C0121428C
:201B60000000224210B5012016490860E220FFF77BFF2C20FFF778FF082000F077FC2E2050
:201B8000FFF772FF082000F071FC2F20FFF76CFF082000F06BFC2320FFF766FF3421812096
:201BA000FFF7C8FFA220FFF75FFFC820FFF75CFFA120FFF759FF4020FFF756FFAF20FFF79A
:201BC00053FF10BD9C01214200BFFEE702E008C8121F08C1002AFAD170477047002001E032
:201BE00001C1121F002AFBD17047000070B504460D46607801232A4604F1300100F020FFE2
:201C000008B1032070BD94F82E1294F82F0241EA00204AF65521884201D00220F2E794F80F
:201C20006900010694F8680041EA004194F8670041EA002094F86610084320F07F400E4923
:201C4000884201D10020DDE794F88500010694F8840041EA004194F8830041EA002094F88A
:201C60008210084320F07F400349884201D10020C8E70120C6E7000046415400F8B500208B
:201C8000009000240025234900F05AFF032222480168224800F06AFF061E2AD11F48C0684D
:201CA0001F490860FFF7BEFE1EA205210120FFF79EFEFEF74DFE1BA202210120FFF733FEA1
:201CC00001F04AFC154800F02FFF1848006801F0E1F90646154801680F48006801F0E8F81D
:201CE000064613480268134801681348FEF776FC0EE0114800680F4908600F4840680C498A
:201D00000860084602680B4801680B48FEF766FCF8BD0000140B002034000020440D002084
:201D200060000020757064617465000038000020400000203C00002000500008024600E00C
:201D4000521C107810B110788842F9D1107870472DE9F74F86B00698006800900098007839
:201D600030380590059809280AD8009840783A2806D10098801C009006990098086001E0E9
:201D8000002005900598022803D30B2009B0BDE8F08FC849059851F82040079804600CB9CA
:201DA0000C20F3E7207878B1607800F077FE804608F0010040B9089820B108F0040008B141
:201DC0000A20E3E70020E1E70020207005986070607800F013FE804608F0010008B1032096
:201DE000D4E7089820B108F0040008B10A20CDE74FF0000A51462046FFF7F8FE0546012D79
:201E000013D104F5F777387978B1F87A0106B87A41EA0041787A41EA0020397A40EA010A61
:201E200051462046FFF7E2FE0546032D01D10120ACE70DB10D20A9E73B20015D94F83C00D2
:201E400041EA0020B0F5007F01D00D209EE74620015D94F8470041EA0029B9F1000F0ED10D
:201E600094F85700010694F8560041EA004194F8550041EA002094F8541040EA0109C4F81E
:201E80001C904020065DE670012E03D0022E01D00D207BE709FB06F93D20005D0646A070D2
:201EA00016B1701E304008B10D206FE74120015D94F8420041EA00202081207A00F00F000F
:201EC00008B10D2062E74320015D94F8440041EA00200490049870B994F85300010694F82C
:201EE000520041EA004194F8510041EA002094F85010084304903E20015D94F83F0041EA7F
:201F000000200190019808B90D203FE701984844218900EB11100390DDE90301814201D295
:201F20000D2033E7DDE90310401AA178B0FBF1FBBBF1000F01D10D2028E7012540F6F670EC
:201F4000834500D302254FF6F670834500D303250BF10200A06103985044A06201985044F4
:201F60002062032D16D1208908B10D200EE794F85F00010694F85E0041EA004194F85D0013
:201F800041EA002094F85C1008436062A0698000029014E0208908B90D20F7E6206A484458
:201FA0006062022D02D1A069400007E0207E00F00100A16901EB410100EB51000290E1694E
:201FC000029800F2FF10B1EB502F01D20D20DDE64FF0FF3020610020E060032D5CD160710B
:201FE00094F8601094F8610041EA0020504460616078012304F13001626900F021FDE8BBBA
:2020000094F82E1294F82F0241EA00204AF65521884241D13320005D01063220005D41EAC9
:2020200000413120005D41EA002094F8301008432149884230D194F81702010694F81602CA
:2020400041EA004194F8150241EA002094F8141208431A4988421FD194F81F02010694F8CC
:202060001E0241EA004194F81D0241EA002094F81C120843E06094F81B0200E00CE001061D
:2020800094F81A0241EA004194F8190241EA002094F8181208432061257009480088401CEE
:2020A00080B207490880E0800020E062207100BF6CE6000080060020525261417272416140
:2020C000880600200246891E9069801E884201D8002070479378906A01FB0300F9E700006E
:2020E0002DE9F04705460C46207820F04000401E00EB800101EBC00600274FF0010800BF64
:202100001A48C05D205C1949C95D2144497840EA0129B8F1000F10D0484601F03FF88046AE
:20212000C82E07D23146761C35F8110001F036F8404508D00020BDE8F0874FF6FF70814557
:2021400001D00020F7E7781C07460D28D8D3207800F0400038B1B8F1000F04D035F816006F
:2021600008B10020E7E70120E5E700000A3C00082DE9F04704468946B9F1000F06D1E76838
:2021800017B1A069B84211D801270FE04946204601F011F90646022E02D20120BDE8F087F7
:2021A000A069B04201D93046F8E74F463D4600BF6D1CA069A84204D80225BD4201D90020A6
:2021C000ECE72946204601F0F6F8064606B909E0701C08B1012E01D13046DFE7BD42E7D14B
:2021E0000020DBE700BF6FF070422946204601F0B3FB8046B8F1000F08D1B9F1000F05D0D4
:202200002A464946204601F0A7FB8046B8F1000F09D1E5602069401C68B12069401E2061C3
:202220000120607107E0B8F1010F02D14FF0FF3000E0012005462846B0E700002DE9F34F22
:2022400083B082460498D0F800B001E00BF1010B9BF800002F28F9D09BF800005C28F5D0F7
:20226000DAF81C9000252E4600BF3046761C1BF80040202C03DB2F2C01D05C2C00D11CE082
:20228000C82D03D3062005B0BDE8F08FE4B20121204600F05DFF04460CB90620F3E7802C4F
:2022A00006DA21466BA0FFF749FD08B10620EAE728466D1C29F81040D7E700BF0BEB0601FE
:2022C00004980160202C01DA042000E00020074608E0681E39F81040202C02D02E2C00D032
:2022E00002E06D1E002DF4D100BF0DB90620CAE7002029F815000B222021DAF8180001F084
:2023000021F9002600E0761C39F816002028FAD039F816002E28F6D00EB147F0030700E06F
:202320006D1E25B1681E39F810002E28F8D14FF00008CDF808800820019000BF3046761C42
:2023400039F8104004B955E0202C03D02E2C04D1AE4202D047F00307F0E7DDE90110884241
:2023600001D2AE4216D101980B2802D147F0030740E0AE4201D047F00307AE4200D939E0CF
:202380002E46082002900B2001904FEA88604FEA1068D3E7802C0BDB0021204600F0D8FEE8
:2023A00004461CB1A4F180002D490C5C47F0020700BF24B121462BA0FFF7C0FC18B15F240F
:2023C00047F003070FE0412C04DB5A2C02DC48F0020808E0612C06DB7A2C04DC48F00108BE
:2023E000A4F1200084B2DAF818300298411C02911C54A3E700BFDAF818000078E52803D152
:202400000520DAF8181008700198082803D14FEA88604FEA106808F00C000C2803D008F0B3
:202420000300032801D147F0020707F0020058B908F00300012801D147F0100708F00C000A
:20244000042801D147F00807DAF81800C772002019E70000222A3A3C3E3F7C7F00000000BB
:20246000173C00082B2C3B3D5B5D000008B50021009107E002E00099491E009100990029EF
:20248000F9D1401E0028F5D108BD014601EBC1024FF0E0235A6100229A6101221A6100BFF4
:2024A0004FF0E022106900F001021AB100F48032002AF5D000224FF0E0231A619A6170477E
:2024C0002DE9F04704460021204600F048FA074617B13846BDE8F0874FF0FF09CA4600BFE7
:2024E0002169206801F0C4F9074607B154E065692E780EB904274FE0E87A00F03F08E52EA2
:2025000005D008F0080028B1B8F10F0F02D04FF0FF093AE0B8F10F0F1CD1E069A0B306F0CD
:20252000400030B195F80DA026F04006B146E08820844E450AD1687B504507D12946E0696B
:20254000FFF7CEFD10B1A9F1010000E0FF2000F0FF091AE0B9F1000F05D1284601F0CBFABA
:20256000504500D118E04FF0FF094FF6FF702084A069C07A00F0010030B90B222846A1699C
:2025800000F0C0FF00B907E0FFE70021204600F006F80746002FA3D000BF38469AE72DE9CE
:2025A000F04104468846E088401C86B20EB1206910B90420BDE8F08106F00F0000286FD11E
:2025C0002069401C2061E06828B920680089B04266DC0420EEE720688078401E00EA161040
:2025E00000285DD1E168206800F0E5FE0546012D01D80220DEE7681C08B90120DAE72068F9
:202600008069A84246D8B8F1000F01D10420D1E7E1682068FFF7ACFD05460DB90720C9E70B
:20262000012D01D10220C5E7681C08B90120C1E70021206801F01CF908B10120BAE721680B
:2026400001F130004FF40072002100F07BFF29462068FFF737FD2168C862002710E001200C
:20266000216808710021206801F002F908B10120A0E72068C06A401C2168C862781CC7B294
:2026800020688078B842EADC2068C06AC01B2168C86200BFE56029462068FFF713FD206138
:2026A000E6802068303006F00F0100EB4110606100207FE72DE9F04704464FF0FF09CA4655
:2026C00004274CE02169206801F0D2F8074607B148E0666935780DB9042743E0F07A00F0BF
:2026E0003F08E52D07D02E2D05D008F0080028B1B8F10F0F02D04FF0FF0929E0B8F10F0FF1
:202700001AD105F0400030B196F80DA025F04005A946E08820844D450AD1707B504507D163
:202720003146E06901F0DEF810B1A9F1010000E0FF2000F0FF090BE0B9F1000F04D13046D0
:2027400001F0D9F9504502D04FF6FF70208409E000212046FFF723FF074607B102E02069FF
:202760000028AFD100BF0FB1002020613846BDE8F0872DE9F04F85B00446D4F81880D4F8F3
:202780001CB00C22414601A800F0CFFE00BF9DF80F0000F0010030B3002088F80B00E0612F
:2027A00001270DE03B465A4601A9404600F0A1FD2046FFF785FE054605B103E0781C87B295
:2027C000642FEFDB00BF642F03D1072005B0BDE8F08F042D01D02846F8E79DF80F0088F803
:2027E0000B00C4F81CB09DF80F0000F0020070B1002601E0701C86B23BF816000028F9D189
:2028000006F119000D2190FBF1F086B200E001260021204600F0A3F805460DB12846D5E78A
:2028200000200746049000BF2169206801F020F8054605B119E0606990F80090B9F1E50F44
:2028400002D0B9F1000F08D10FB9E0880490781C80B20746B04201D107E0002701212046E3
:20286000FFF79DFE0546002DDED000BF4DBB012E27DD2046049900F072F805460DBBA0692E
:2028800001F039F90090701E86B200BF2169206800F0EEFF054605B112E0F2B26169E06967
:2028A000009B00F097FC01202168087100212046FFF775FE05461DB9701E80B2061EE5D12C
:2028C00000BFD5B92169206800F0D2FF0546A5B9D4F814A020220021504600F033FE0B2268
:2028E0005046A16900F021FEA069C07A00F018008AF80C00012021680871284666E770B54D
:202900000446E688208C4FF6FF72904201D1304600E0208C0146204600F021F80546E5B958
:2029200000BF2169206800F0A3FF054605B110E0E52061690870012021680871E088B0427F
:2029400000DB06E000212046FFF729FE0546002DE7D000BF042D00D10225284670BD2DE94A
:20296000F04104460E46E680A568012D03D020688069A84202D80220BDE8F0812DB9206839
:202980000078032801D12068456A65B9E56020680089B04201DC0220EEE72068406A00EB34
:2029A0001610206120E020688078070112E02946206800F000FD0546681C08B90120DBE79F
:2029C000022D03D320688069A84201D80220D3E7F01B86B2BE42EADAE56029462068FFF7A9
:2029E00071FB00EB161020612068303006F00F0100EB411060610020BEE70000014621B110
:202A0000012904D0022903D100BF0020704700BF00BF01480078F9E77D06002010B5034653
:202A20000C46002123B1012B04D0022B03D100BF002010BD01E0042100BF00BF0420F8E71B
:202A40002DE9F04105460E4617461C464FF0000825B1012D1CD0022D1BD11AE0012C0AD17D
:202A6000012239460C48FEF7D5FB62020A493046FDF78AFB09E0224639460748FEF7CAFB1C
:202A8000620205493046FDF77FFB0020BDE8F08100BF00BF0420F9E78C1D0020014621B106
:202AA000012904D0022908D100BF0020704709B10120FBE702480078F8E70120F6E7000022
:202AC0007D0600202DE9F04106460F4614461D464FF0000836B1012E1FD0022E1ED104201F
:202AE000BDE8F081012D0AD16A0239460D48FDF74BFB61026A020B48FEF772FC0BE06A0261
:202B000039460848FDF740FB61022B464FF400720448FEF7C5FC0020E2E700BF00BF0420A1
:202B2000DEE700008C1D002070B50446204600F055FA05460DB900202060284670BD0000A7
:202B40000246022A01DB0B207047074850F822300BB10020187009B100200870024840F822
:202B600022100020F0E70000800600202DE9F7438CB0054616460020286006F01F0626F07A
:202B8000010203A90DA8FFF7E3F80746CDF824D052480A9027B903A80D9900F05BFB074602
:202BA000089C0FB904B9062706F01C00002858D04FB1042F03D103A8FFF7DBFD074646F05A
:202BC0000806089C09E0E07A00F0110008B1072703E006F0040000B10827002F40D106F025
:202BE000080000283CD000F058FC804684F80E804FEA1821E1734FEA184121744FEA1861E6
:202C000061740020E072207700216177A177E177A17EE07E41EA0021227D607D42EA0020DC
:202C200041EA00490020A0760021E17620756175012003990871B9F1000F11D00398D0F8D4
:202C40002C804946039800F022FF074647B9A9F101000399C8604146039800F009FE07467B
:202C60000EE06FB9E07A00F0100008B1042707E006F0020020B1E07A00F0010000B1072726
:202C800047B906F0080008B146F020060398C06AE8612C62F7B9AE71A17EE07E41EA0021ED
:202CA000227D607D42EA002041EA00402861E07F0106A07F41EA0041607F41EA0020217F9D
:202CC0000843E8600020A860A861039828600398C088A88038460FB0BDE8F0838C210020E0
:202CE0002DE9FF4F83B0044615469A46DDF810B00020CAF80000A188206800F071FF02909E
:202D0000029818B1029807B0BDE8F08FA07900F0800008B10220F6E7A07900F0010008B9CF
:202D20000720F0E7D4E90210401A00900098854200D9009DB6E02089C0F3080000287DD197
:202D400020688078401EA16800EA512000F0FF09B9F1000F1DD1A06810B92069019004E0C3
:202D60006169206800F027FB01900198022805D2A07940F08000A0710220C4E70198401C28
:202D800028B9A07940F08000A0710120BBE70198606161692068FFF795F906462EB9A07939
:202DA00040F08000A0710220ADE74E444FEA5528B8F1000F2DD009EB08002168897888424F
:202DC00003D920688078A0EB090808F0FF032168487832465946FFF733FE28B1A07940F058
:202DE0008000A07101208EE7A07900F0400068B1A069801B404509D2A169891B0BEB412041
:202E00004FF4007204F1240100F08FFB4FEA48273EE0A069B04227D0A07900F04000A0B117
:202E200021684878012304F12401A269FFF74AFE38B1A07940F08000A07100E015E0012009
:202E400061E7A07920F04000A071216848780123324604F12401FFF7F3FD28B1A07940F0A9
:202E60008000A07101204EE7A6612089C0F30800C0F50077AF4200D92F462089C0F308022F
:202E800004F1240011183A46584600F04EFB00BFBB44A0683844A060DAF800003844CAF847
:202EA0000000ED1B002D7FF446AF00202BE70000F3B59BB00F46012212A91BA8FEF748FF1E
:202EC0000546002D10D112980990CDF860D04248199012A81B9900F0BDF9054600BF002DE3
:202EE00076D1179808B9042572E0179800F10B01152203A800F019FB242212A909A800F06C
:202F000014FB394609A800F0A5F9054605B90825042D5DD109A8FFF72CFC0546002D57D1E0
:202F20000E9C13220DF10E0104F10D0000F0FDFA9DF80C0040F02000E07201201299087134
:202F40000B991498884239D0E07A00F01000002834D0A37EE27E43EA022394F814C0627DB6
:202F60004CEA022243EA02410998FFF7ABF806460EB9022522E03146099800F079FC054649
:202F8000099800F15004CDB960782E2816D109980078032806D109990B98496A884201D101
:202FA000002000E00B980646A676310AE176300C2075310E617501200999087145B912A89A
:202FC000FFF79DFC05461DB9129800F0A4FD054628461DB0F0BD00008C2100202DE9F041BF
:202FE0000446A188206800F0FBFD0746002F4FD1A07900F0200000284AD0A07900F040009E
:2030000078B121684878012304F12401A269FFF759FD10B10120BDE8F081A07920F0400048
:20302000A071E169206800F023FC0746002F2FD1256AE87A40F02000E872207B2877A08924
:20304000010A6977E068010CA977E068010EE977207CA876208A010AE9762069000C287559
:203060002069010E697500F018FA0646AE75310AE975310C2976310E6976A07920F020008D
:20308000A071012021680871206800F044FD07463846C0E771B595B001220CA915A8FEF7DC
:2030A00057FE0446002C4DD1CDF848D0274813900CA8159900F0CEF8044600BF002C41D1D9
:2030C000119D0DB9062404E0E87A00F0010000B10724A97EE87E41EA00212A7D687D42EAAE
:2030E000002041EA0046E4B9E87A00F01000C0B1022E01D2022414E024220CA903A800F01C
:2031000014FA0596022103A8FFF729FC044644B903A8FFF7CFFA044604B90724042C00D139
:2031200000247CB90CA8FFF7EAFB044654B926B131460C9800F0ABFC04461CB90C9800F014
:20314000EAFC0446204616B070BD00008C21002010B50246802A01DA10461BE051B1FF2A0B
:2031600001DD002304E0A2F180030B4C34F8133018460FE0002007E0074B33F810309342A8
:2031800000D103E0431C98B28028F5DB00BF00F18003D8B210BD0000983C0008024600218B
:2031A00000E0491C094830F8110020B1074830F811009042F5D1054830F8110018B10448B4
:2031C00030F8110070471046FCE70000983D0008783F0008F0B504461D464D730F27CF72A1
:2031E00000270F738F76BC4681F81BC0571E07EB870C0CEBC706002738463B4600BF4FF6E3
:20320000FF77B84203D03746761C34F81700DFF840C01CF803C001F80C000712DFF830C086
:203220001CF803C08C448CF8017008B94FF6FF705F1C3B460D2FE2D34FF6FF77B84202D009
:2032400034F816700FB942F040020A70F0BD00000A3C00082DE9F3410446019800782F280F
:2032600003D0019800785C2802D10198401C01900020A06001980078202807D200212046B4
:20328000FFF76DFB0646002060612FE000BF01A92046FEF7D3FF064606B126E02046FFF799
:2032A0000FF90646A069C77A46B1042E00D01CE000BF07F0040000B9052616E007F00400EC
:2032C00000B112E06569E87A00F0100008B905260BE0A97EE87E41EA00212A7D687D42EAB3
:2032E000002041EA0040A060D1E700BF3046BDE8FC812DE9FC4780468A4617461C460B2259
:203300005146404600F011F9052C0ADD00BF601000EBC43137F8022B881884B23888002855
:20332000F5D1072500BF2046E11704EB11710911A4EB0111303101F0FF09B9F1390F03DD26
:2033400009F1070000F0FF0928466D1E0DF800902046E11704EB1171C1F30F14002CE2D161
:203360007E200DF80500002600E0761CAE4203D218F806002028F8D100BF082D04D22846E9
:203380006D1C1DF8000000E020203146761C08F80100082EF1D3BDE8FC8700B593B0FDF757
:2033A0005FFE6846FDF7E4FD0020FFF727FBFEF765FC13B000BD2DE9F04105460C46022C0D
:2033C00002D3A869A04202D80120BDE8F0812878012804D002282CD003285AD13DE0274671
:2033E00007EB5707286A00EB5721284600F040FA00B14EE0C7F3080105F1300010F801809F
:203400007F1C286A00EB5721284600F031FA00B13FE0C7F3080105F13000405C48EA0028E4
:2034200004F0010010B14FEA1810CEE7C8F30B00CBE7286A00EB1421284600F019FA00B174
:2034400027E040F2FF1000EA440105F130000E183078717840EA0120B7E7286A00EBD411CD
:20346000284600F005FA00B113E040F2FF1000EA840105F130000E18F0780006B17840EA8E
:203480000140717840EA01203178084320F070409BE700BF4FF0FF3097E7002070470000FF
:2034A000FDF7D0FAFDF70CFFFEF75CFBFEF7BAFA0DA205210120FEF79AFAFDF751FAFDF7A8
:2034C00047FA0BA203210120FEF72DFA01200A4908600A48FEF7CAFF00200949C1F8840101
:2034E000FFF75BFF00BFFEE7626F6F742E2E2E00626F6F740000000084012242FFFF2F00D0
:2035000000002242F0B503461C460D46002000BF161EA2F1010207D014F8017B15F801CBC3
:20352000A7EB0C06301EF3D0F0BD70B503460C4603E014F8015B03F8015B151EA2F10102FE
:20354000F7D170BD30B5034601E003F8011B141EA2F10102F9D130BD2DE9FE4F4FF0000926
:20356000CA46A748A74908600020A7490860A749087023E14FF48062FF21A548FDF752F8A0
:20358000A44B4FF48062A249A348FFF7A9FBA3490870A3480068B0F5707F4DD2A1480078DC
:2035A000012824D14FF000094FF0000A18E000240DE009F5A0709649085C9B49095D484030
:2035C00009F5A071924A505409F10109641C202CEFD393480068401C914908600AF1010AE3
:2035E000BAF1160FE3D300208E49087024E04FF00009CA461CE000240BE0854810F8090091
:203600008949095D4840824901F8090009F10109641C202CF1D382480068401C80490860CA
:2036200008460068B0F5707F00D304E00AF1010ABAF1200FDFD300BF754800787B490978BE
:20364000884205D171480078401C7049087002E000206E49087076480068012800D1AEE02D
:203660006B480078714908707248006850B97248006838B9664800686E4908606448406826
:203680006D49086062486D4908604FF40072084601685C480068FEF71DF85A48006800F5C3
:2036A00080605849086058480068401C56490860634800886349088063480068FCF758FEF3
:2036C0005149029009688802FCF752FE5F490090FCF76CFD01900299FCF79AFD8346FCF77A
:2036E00079FE07465A4A5B4BFCF7D0FD0546FCF758FE5349088008460088B0F5A07F07DAC9
:203700005048048800E0641C4D4800888442FAD34D480068FCF72CFE07463B49096888028F
:20372000FCF726FE80464949FCF740FD06463946FCF76EFD0546FCF720FE41490880084605
:203740000088632801DD632008803D4800880A280EDA3B4800880A2190FBF1F201FB120094
:2037600030303D490870252048700020887015E0334800880A2190FBF1F0303036490870F0
:203780002F4800880A2190FBF1F201FB1200303031494870252088700020C8702E4A0621BD
:2037A0000220FEF724F92C4A03210220FEF7BBF818480068B0F5806F00D200E0DAE600BFE4
:2037C0001B48006801280BD124A205210220FEF70EF922A203210220FEF7A5F800BFFEE7CF
:2037E00020A206210220FEF702F91EA203210220FEF799F81D48FEF739FEBDE8FE8F00007F
:20380000005000084800002068000020800000208C11002058000020440D002055000020A5
:20382000880000208C0000201000002081000020280122423C000020400000208400002076
:203840006600002064000020600000200000C8429A999999999909406C000020534420456C
:20386000525200003130302500000000FFFF0F002DE9F04104460D46E66AAE422FD0207925
:2038800008B360780123324604F13001FFF71AF910B10120BDE8F08100202071D4E907104D
:2038A0000844B0420FD9E7780AE0E069064460780123324604F13001FFF704F9781EC7B26A
:2038C000012FF2DC00BF55B1607801232A4604F13001FFF7B5F808B10120DBE7E5620020ED
:2038E000D8E70000F0B50346087800F03F00401E00EB800707EBC0020025012600BF154880
:20390000405D085C134F7F5D0F447F7840EA07244EB1C82A01D30020F0BD26461046521C07
:2039200023F8104005E04FF6FF70844201D00020F2E7681C05460D28E1D3087800F040008B
:2039400030B1C82A01D30020E6E7002023F812000120E1E70A3C00082DE9F04705460E4663
:203960001746022E02D3A869B04202D84FF002088AE02878012804D0022841D003287DD104
:2039800054E0B14609EB5909286A00EB59212846FFF76EFF8046B8F1000F00D071E0C9F383
:2039A000080105F130000C1806F0010020B1F9B2207861F31F1000E03846207009F1010934
:2039C00001202871286A00EB59212846FFF750FF8046B8F1000F00D053E0C9F3080105F147
:2039E00030000C1806F0010010B1C7F3071005E0207800F0F000C7F303210843207040E0B4
:203A0000286A00EB16212846FFF732FF8046B8F1000F00D035E040F2FF1000EA460105F192
:203A200030000C182770380A60702AE0286A00EBD6112846FFF71CFF8046B8F1000F00D04E
:203A40001FE040F2FF1000EA860105F130000C18E0780006A17840EA0140617840EA012065
:203A60002178084300F0704007432770380A6070380CA070380EE07003E0FFE74FF00208D3
:203A800000BF00BF012028714046BDE8F0872DE9F04104460E46022E02D3A069B04201D88E
:203AA000022725E000271FE031462046FFF783FC054605B91BE0012D01D1022717E0681CB8
:203AC00008B9012713E0002231462046FFF744FF074607B10BE02069401C20B12069401C47
:203AE0002061012060712E46A069B042DCD800BF3846BDE8F08130B5014600200B2200BFA5
:203B0000431003EBC01411F8015B6319D8B2531E1A1EF5D130BD70B5044600212046FFF7DD
:203B2000A7FE0546002D59D1207803284FD1607900284CD00020E0624FF40072002104F111
:203B40003000FFF7FFFC552184F82E12AA2184F82F12522084F830005221312001556121D0
:203B600032200155412133200155722184F8141284F81512412184F81612612184F817128D
:203B8000217C84F81812208A010A84F819122069010C84F81A122069010E84F81B12217B6B
:203BA00084F81C12A089010A84F81D12E068010C84F81E12E068010E84F81F12607801237B
:203BC00004F130016269FEF77DFF00206071607800221146FEF722FF00B10125284670BDB9
:203BE00070B504460D4624B1207810B1E088A84201D0092070BD6078FEF750FF00F001004F
:203C000008B10320F6E70020F4E701030507090E10121416181C1E809A90418E418F80451D
:203C200045454949498E8F9092924F994F555559999A9B9C9D9E9F41494F55A5A5A6A7A863
:203C4000A9AAABAC21AEAFB0B1B2B3B4B5B6B7B8B9BABBBCBDBEBFC0C1C2C3C4C5C6C7C8E0
:203C6000C9CACBCCCDCECFD0D1D2D3D4D5D6D7D8D9DADBDCDDDEDFE0E1E2E3E4E5E6E7E834
:203C8000E9EAEBECEDEEEFF0F1F2F3F4F5F6F7F8F9FAFBFCFDFEFF00C700FC00E900E200AA
:203CA000E400E000E500E700EA00EB00E800EF00EE00EC00C400C500C900E600C600F400FC
:203CC000F600F200FB00F900FF00D600DC00A200A300A500A7209201E100ED00F300FA0058
:203CE000F100D100AA00BA00BF001023AC00BD00BC00A100AB00BB00912592259325022534
:203D0000242561256225562555256325512557255D255C255B251025142534252C251C2502
:203D200000253C255E255F255A25542569256625602550256C2567256825642565255925B0
:203D40005825522553256B256A2518250C25882584258C2590258025B103DF009303C0031D
:203D6000A303C303B500C403A6039803A903B4031E22C603B50329226122B1006522642267
:203D800020232123F7004822B0001922B7001A227F20B200A025A00061006200630064001D
:203DA000650066006700680069006A006B006C006D006E006F00700071007200730074003B
:203DC000750076007700780079007A00A100A200A300A500AC00AF00E000E100E200E300AA
:203DE000E400E500E600E700E800E900EA00EB00EC00ED00EE00EF00F000F100F200F3000B
:203E0000F400F500F600F800F900FA00FB00FC00FD00FE00FF0001010301050107010901C9
:203E20000B010D010F01110113011501170119011B011D011F0121012301250127012901D2
:203E40002B012D012F0131013301350137013A013C013E01400142014401460148014B01A8
:203E60004D014F01510153015501570159015B015D015F01610163016501670169016B0172
:203E80006D016F0171017301750177017A017C017E019201B103B203B303B403B503B6031F
:203EA000B703B803B903BA03BB03BC03BD03BE03BF03C003C103C303C403C503C603C703E5
:203EC000C803C903CA0330043104320433043404350436043704380439043A043B043C048C
:203EE0003D043E043F0440044104420443044404450446044704480449044A044B044C043A
:203F00004D044E044F045104520453045404550456045704580459045A045B045C045E040B
:203F20005F0470217121722173217421752176217721782179217A217B217C217D217E2136
:203F40007F2141FF42FF43FF44FF45FF46FF47FF48FF49FF4AFF4BFF4CFF4DFF4EFF4FFF98
:203F600050FF51FF52FF53FF54FF55FF56FF57FF58FF59FF5AFF000041004200430044009B
:203F8000450046004700480049004A004B004C004D004E004F005000510052005300540059
:203FA000550056005700580059005A002100E0FFE1FFE5FFE2FFE3FFC000C100C200C30067
:203FC000C400C500C600C700C800C900CA00CB00CC00CD00CE00CF00D000D100D200D30029
:203FE000D400D500D600D800D900DA00DB00DC00DD00DE00780100010201040106010801B3
:204000000A010C010E01100112011401160118011A011C011E012001220124012601280100
:204020002A012C012E01300132013401360139013B013D013F0141014301450147014A01D6
:204040004C014E01500152015401560158015A015C015E01600162016401660168016A01A0
:204060006C016E01700172017401760179017B017D01910191039203930394039503960307
:204080009703980399039A039B039C039D039E039F03A003A103A303A403A503A603A70303
:2040A000A803A903AA0310041104120413041404150416041704180419041A041B041C04AA
:2040C0001D041E041F0420042104220423042404250426042704280429042A042B042C0458
:2040E0002D042E042F040104020403040404050406040704080409040A040B040C040E049A
:204100000F0460216121622163216421652166216721682169216A216B216C216D216E2194
:204120006F2121FF22FF23FF24FF25FF26FF27FF28FF29FF2AFF2BFF2CFF2DFF2EFF2FFFA6
:2041400030FF31FF32FF33FF34FF35FF36FF37FF38FF39FF3AFF0000526F62696E5F653332
:204160002E43555200000000526F62696E5F65332E62696E000000006D6B734C6974655F97
:204180006A6D2E62696E0000A8410008000000208C06000086050008044500088C060020A8
:2041A00094200000DC1B000801101023A3BDAD0D4111BB8DDC802DD0D2C49B1E26EBE33385
:2041C0004A15E40AB3B13C93BBAFF73E78411B0868041A5804011045CDAB103202170403D2
:2041E000163025138C11422002100172F00A10CF18691B15C030C0301008C839CF390F091A
:20420000011008E01010F81010601008304142FF4244381008C02010E020E0181F01C23172
:204220000C738811192132E0E8097885828D70A29E42683CC03008BC541F608055040830EF
:20424000C0C480601F664428FE284439291D080808FF0491E3B0701A8001C14AC056291A72
:20426000392A4CE01C03181D201010201C273F408080403F5A20994B80FF3F4B6010201FA4
:20428000C0A0908886C120191029D01D80808283DE39A929332F18161110FF10D919211926
:2042A000081F80818181423C082A403219604A42101A700E9A908269801E3845828245503C
:2042C0006910A783848848241FCBC3C3C8E9F0A71028284444825A8801811E8244442828C5
:2042E000885AE0D0214CD8060180180E909010A0C03F408F90908F505FB22A70FA10088060
:20430000F08F088FF0802A10D019313C80FF82A129A0141020701C3F4080014A40201B6027
:204320008020190F4B601F104B107030AB87E0105C020207E019BC29402C847C04203904AC
:2043400029203B82FF7051195069DA3912192F5A7F0E2C80503030BD830CB0C0301D80800C
:20436000C02010198C39503C833C83505AC0601D800F30FF284A60B09B1F60B039E01684FD
:20438000040402011008E01804040418E0A80807182020609887203D0C34C281C029C110D6
:2043A00008E04182828448302B3010227A30B269D0111A7F6019B279103E011EE01E0110E8
:2043C0003AC0101B0FF00219101370901B9070A01EE0990699E0B05910213483FC831A70B0
:2043E0006F1410D0301008C0B088868180E054FC040419EF514A70072144031CE054040481
:20440000FC1B8080EDB11E8060180618F879105901818C2060401D311E66918949FE127353
:2044200010F0A67F8181423C1C3C42811151392329109A7F42473C4A89898A4C25E0101090
:20444000202E0181FF8101782640404080401E53ACA4A4A30869602D80FF0101701162B0D3
:204460006B81FF4D4380CC7D4080807F6D3930AD9825C38110B9BF111C81FE0102891419C8
:2044800010A90F39B029D0198D39F94F80FFA020100FA129A0AD0F1020A0532D81FF820174
:2044A000C08147E6498991926752C01E01017F818138819E017F80817F408F010739C0391F
:2044C00007428F011FE11CE11F101E81E71818E7D03C40C040049E80814638067137C3A1BB
:2044E000918985C353F0084B027D5D72F072FF5A0811D4807D02A809C0202060C08080609E
:20450000C4310000FFFFFFFFFFFFFFFFFFFFFFFFFFFFFFFFFFFFFFFFFFFFFFFFFFFFFFFFC2
:20452000FFFFFFFFFFFFFFFFFFFFFFFFFFFFFFFFFFFFFFFFFFFFFFFFFFFFFFFFFFFFFFFF9B
:20454000FFFFFFFFFFFFFFFFFFFFFFFFFFFFFFFFFFFFFFFFFFFFFFFFFFFFFFFFFFFFFFFF7B
:20456000FFFFFFFFFFFFFFFFFFFFFFFFFFFFFFFFFFFFFFFFFFFFFFFFFFFFFFFFFFFFFFFF5B
:20458000FFFFFFFFFFFFFFFFFFFFFFFFFFFFFFFFFFFFFFFFFFFFFFFFFFFFFFFFFFFFFFFF3B
:20500000D8BF0020F9530008D15E0008D55E0008D95E0008DD5E0008E15E0008EB650008F2
:20502000EB650008EB650008EB650008EB650008EB650008EB650008EB650008FD6500089E
:20504000EB650008EB650008EB650008EB650008EB650008EB650008255F0008455F000808
:20506000655F0008855F0008A55F0008715D0008895D0008A15D0008BD5D0008D95D000842
:20508000F55D0008115E0008155B0008EB650008BD710008EB650008EB650008C55F00085D
:2050A000E1680008056900082969000861690008B5690008256A0008956A0008DD620008B2
:2050C000F5620008E962000801630008EB650008EB650008E16E0008316F0008816F00080B
:2050E00009600008EB650008EB650008BD6B0008E16B0008056C00083D6C00086D5B000811
:20510000EB650008EB650008056B0008EB650008D16F000821700008756B0008996B00083A
:205120002D5E0008455E00085D5E0008795E000810B5054C237833B9044B13B10448AFF3F1
:2051400000800123237010BDA810002000000000781F030808B5034B1BB103490348AFF3C1
:20516000008008BD00000000AC100020781F030810B512490A2309220968114800F014FA2C
:2051800010490323022209680F4800F00DFA0F491B231A2209680E4800F006FA0D492B2380
:2051A0002A2209680C4800F0FFF9BDE810400B4932232C2209680A4800F0F6B98402002002
:2051C000C410002088020020DC1000208C020020F41000207C0200200C11002080020020D6
:2051E0002411002010B5044600F016FD034B2046BDE81040197800F076BC00BF16000020F7
:20520000F8B50446056801F055FA002223685B0103F184431A6080232B600123AB622A61C2
:20522000EA606B61637973B1012B0FD0012223685B0103F18443C3F8802223685B0103F150
:2052400084431A60F8BD4FF400436B644FF6FF7200252368DA626E1CF7B23946204601F058
:205260003EFAE8B148F6FF72236817F0010F03F1340343F8252014BF6FF0FF026FF47F420A
:2052800023684FEA650503F1180353F8251001EA020114BF68224FF4D0420A4343F82520E4
:2052A000042E3546D7D1C1E77047000038B50025254A264C1368022043F01003136000F001
:2052C000C5FE002001F086F865602368182023F40023236001F08AF8102001F087F800F034
:2052E00043F8A560102001F075F8102001F08CF80028FAD000F039F8154801F091F8182019
:2053000001F068F8182001F07FF80028FAD0022001F050F800210F4801F022F80E4801F085
:2053200065F900F039F80D4B188800F05DFC0C4800F05EFC0B4801F097F900F02FF800F034
:2053400059F8FFF7B1FF38BD00200240001002400C000020005000083F190100140000209C
:20536000E5510008015200087047002108B5084601F096F84FF48061012001F091F8002152
:20538000022001F08DF82D2001F09AF8BDE808400021032001F084B800F06CBE13B5134C06
:2053A000032294F8CC10D4F8C00000F07BFED4F8C03094F8CC101A684FF480338B40136190
:2053C00000230193019BB3F5007F02D2019B0133F7E7D4F8C000042294F8CC1000F062FE67
:2053E000034802B0BDE8104003F024B920320308A814002000F07DBE01498D4601490847D1
:20540000D8BF00200954000808B5114B1A68114B9A4213D1104B114A934213D325F070FEC5
:2054200000221146104602F087FF0D4B7BB125F003FC52F8041B043343F8041C09498B4273
:20544000F7D3E7E70022043343F8042CE3E7FEE76876030800000020A810002048290020CF
:2054600039AC0208A810002010B50D4B1A680AB90C4A1A601A680C49891A814204DB0949C5
:205480004442511AA14207DA25F0D0FB0C234FF0FF320360104610BD10441860FAE700BFE6
:2054A0003C11002048290020F8F10328002070474FF4005300204B607047012070474FF0D4
:2054C000FF3070470020704710B50C46FFF7FAFF2070012010BD704770B515460C468E185C
:2054E000B44201D1284670BD14F8010BFFF7F3FFF6E7FEE7C38882889B1AC2888188914257
:2055000082BF028901329B1898B2704710B5036904465868FFF7EEFF88B123695B689A8810
:20552000196892B2885C99881A89C0B292B28A420FBF00229A88013292B29A8010BD4FF0CD
:20554000FF30FBE708B503695868FFF7D3FF08BD03695B689988DA8892B28A421FBF9A8802
:205560001B6892B2985C14BFC0B24FF0FF307047026991688888CB889BB28342FAD11268E8
:2055800013685B06FCD5704713B504698DF8071001220DF10701204601F0C5FB0028F7D0A7
:2055A000012002B010BD000030B54FF0000C4FF47A75C0E901C5034D016105600275437534
:2055C00030BD00BF583503082DE9F74303690446DB6888468B42914625D3067D134D3601BA
:2055E000AB19477D586818B10022597B01F02EF9206901F04DFB39016A18127BAB19CDF8F8
:2056000004901B7B695800932069AB5901F007FC20694246002101F028FC206903B0BDE863
:20562000F04301F05BBB03B0BDE8F083203203080022FFF7C9BF0000044B02791B789A422F
:2056400002BF034B1B681860704700BF6011002064110020002310B50446036072B6054B97
:2056600019311970044B1860044800F0FDFF62B6204610BD60110020641100203956000850
:20568000002203681B685B0103F184431A607047012203681B685B0103F184431A60704759
:2056A000036801391B6889B29962704703681A68D36A9BB2994228BF19465162704738B5E6
:2056C00061B9012203681B68996203681B68DA6203681B68DC6AA4B2204638BD48224A439E
:2056E0004FF6FF71B2FBF1F1013189B202EB5102B2FBF1F294B2FFF7D3FF036892B21B68E9
:20570000DA62E9E7C9B2006801F002B8012203681B685B0103F18443C3F8802270470000B3
:2057200008B501211048FFF795FF02210F48FFF791FF03210E48FFF78DFF04210D48FFF73C
:2057400089FF05210C48FFF785FF06210B48FFF781FF07210A48FFF77DFFBDE808400821DB
:205760000848FFF777BF00BF4011002044110020481100204C11002050110020541100200C
:20578000581100205C110020F8B506460C4615468F18A74206D0336814F8011B1B6830462B
:2057A0009847F6E72846F8BD70B505460C46084649B126F061FD2B68024621462846BDE837
:2057C00070409B68184770BD0368C9B21B68184703685B68184738B50D210546FFF7F4FFE6
:2057E0000A2104462846FFF7EFFF204438BD38B50546FFF7EDFF04462846FFF7ECFF204472
:2058000038BD2DE970439046994690B058EA090306469DF8585007D13021FFF7D5FF0125E5
:20582000284610B0BDE870830024404649462A4600231AF09BFE8046894601340DEB04036A
:2058400003F8012C58EA0903EFD10025013C1DF804103046092994BF3031373149B2FFF7D2
:20586000B3FF0544002CF1D1DAE72DE9F0411D46002A75F1000307461446069E05DA2D21C9
:20588000FFF7A2FF644265EB4505F6B2069622462B463846BDE8F041FFF7B3BF07B5CB17BA
:2058A00000920A46FFF7E1FF03B05DF804FB38B50546FFF7F3FF04462846FFF78CFF20446C
:2058C00038BD07B5CB1700920A46FFF7CEFF03B05DF804FB37B5CB1700920A460546FFF798
:2058E000C4FF04462846FFF776FF204403B030BD07B5D2B200920023CAB2FFF782FF03B023
:205900005DF804FB07B5D2B2009200230A46FFF778FF03B05DF804FB37B5D2B20092002355
:205920000A460546FFF76DFF04462846FFF753FF204403B030BD00002DE9F34717461E4655
:20594000824600220023384631461AF053FA9DF828504FF00104F8B143A3D3E900233846B1
:2059600031461AF03DFA00B90446E4B20022002338463146C4B11AF01FFA18B12D21504657
:20598000FFF722FF04463C495046FFF721FF0444204602B0BDE8F08735A3D3E900233846C4
:2059A00031461AF013FADEE71AF006FA30B12D215046FFF709FF044606F100464FF00008F9
:2059C00000202E495FFA88F39D4206D900222C4B1AF0AAF808F10108F4E73A46334619F07A
:2059E000C3FD06460F461AF0D9FD0A230246009380460B4650468946FFF737FF0444002D41
:205A0000C6D04046494619F037FF02460B463046394619F0A7FD06460F4650461949FFF7D2
:205A2000D7FE0444013DEDB2FF2DB1D0144B00223046394619F04EFF0F4606461AF0E4F96B
:205A40000A22014680465046FFF728FF0444404619F0D6FE02460B463046394619F082FD99
:205A600006460F46DEE700BF800350726C92DF43800350726C92DFC3743503080000E03FE4
:205A800000002440644F03089DF800100091FFF753BF000030B504460D4687B0064901A8F5
:205AA00026F0D6F922462B4601A90A9826F0D0F90A9807B030BD00BF83350308FEE7704799
:205AC00010B50446007900F0B9FC2079BDE8104000F0CCBC026841F48011936823F46023CE
:205AE000194391607047002330B51C461D4603EB4302072B01FA02F203F10103D8BF15439A
:205B00000A2B44EA0204F2D10368DD6003681C6130BD000070B5144C23681B681D68A90714
:205B200007D51A6822F002021A6023689B6803B198476A0709D523681A68136823F0040365
:205B4000136023681B6903B19847EB070BD523681A68136823F0010313602368DB6813B1BA
:205B6000BDE87040184770BD1C00002070B5144C23681B681D68A90707D51A6822F00202CC
:205B80001A6023689B6803B198476A0709D523681A68136823F00403136023681B6903B143
:205BA0009847EB070BD523681A68136823F0010313602368DB6813B1BDE87040184770BDAF
:205BC00024000020012203685B0103F1844303F58673191F1A6018680028FCD143F8042C59
:205BE0000B68002BFCD170470146042000F058BC10B50446054B1868A047054B1868A04797
:205C0000044B18682346BDE8104018471C000020200000202400002010B50446FFF750FFE4
:205C200020464FF46021FFF755FF0122236820465B0103F18443C3F8502123685B0103F1BE
:205C40008443C3F80021BDE81040FFF7BBBF0000431E292B0BD80A289BBF800000F18040E7
:205C6000830000F5D84084BF0248C01870470020704700BF146C004008B5142000F0DEFB68
:205C8000042000F0DBFBBDE80840042000F0EEBB0122014B1A60704720000E420022014BF2
:205CA0001A60704720000E4208B5FFF7D1FF00B1016008BD007900F0C1BB142301395943F7
:205CC00000680830435823F4405343EA023242507047036814200833013900FB01314A604A
:205CE0007047000000EBC10340F8312093F90430002B08DB0122591103F01F0302FA03F353
:205D0000014A42F82130704700E100E014220368013902FB01310123490101F18441C1F84D
:205D20000031704714220368013902FB01310023490101F18441C1F8003170472DE9F04165
:205D400014251C4690464B1E5D430668FFF7EAFF9DF81C30240244EA8324089B08361C4360
:205D6000069B77197451FB60C7F80880BDE8F08110B5044B1C68A3681BB198470122236879
:205D80005A6010BD6000002010B5044B1C6823691BB19847102223685A6010BD6000002069
:205DA00010B5054B1C68A36923B198474FF4807223685A6010BD00BF6000002010B5054BF0
:205DC0001C68236A23B198474FF4805223685A6010BD00BF6000002010B5054B1C68A36AF3
:205DE00023B198474FF4803223685A6010BD00BF6000002010B5054B1C68236B23B19847D0
:205E00004FF4801223685A6010BD00BF6000002010B5054B1C68A36B23B198474FF08072D1
:205E200023685A6010BD00BF6000002010B5044B1C68A3681BB19847012223685A6010BD8E
:205E40006400002010B5044B1C6823691BB19847102223685A6010BD6400002010B5054B12
:205E60001C68A36923B198474FF4807223685A6010BD00BF6400002038B5104C636CD8075E
:205E80000BD52368D90408D50D4B1D682B6A23B198474FF480522B685A60A36DDA070BD585
:205EA0002368DB0308D5064B1C68A36A23B198474FF4803223685A6038BD00BF00040240D3
:205EC00064000020000000000000000000000000012007E0022005E0032003E0042001E024
:205EE0000520FFE70D4A0121116072B60C4A00211160074902B4084902B486B005498E4638
:205F0000704700BFAFF30080AFF30080AFF3008000000061F9FFFFFF0583000814ED00E0DD
:205F200010E000E008B5054A136833B1506898470122034B5A6100BF00BF08BD6811002087
:205F40000004014008B5054A936833B1D06898470222034B5A6100BF00BF08BD68110020F1
:205F60000004014008B5054A136933B1506998470422034B5A6100BF00BF08BD68110020CD
:205F80000004014008B5054A936933B1D06998470822034B5A6100BF00BF08BD68110020A9
:205FA0000004014008B5054A136A33B1506A98471022034B5A6100BF00BF08BD681100207F
:205FC000000401402DE9F041002705240C4DD5F814800126A64018EA060F08D0094BE100FA
:205FE00053F834201AB10B4458689047374301340A2CEED16F6100BF00BFBDE8F08100BF8A
:2060000000040140681100202DE9F04100270A240C4DD5F814800126A64018EA060F08D050
:20602000094BE10053F834201AB10B445868904737430134102CEED16F6100BF00BFBDE83E
:20604000F08100BF0004014068110020034A136823F0070318431060704700BF00200240AA
:2060600010B50446007900F0E9F92079BDE8104000F0FCB908B50748FFF7F2FF0648FFF75C
:20608000EFFF0648FFF7ECFFBDE808400448FFF7E7BF00BFD8000020E0000020E80000204F
:2060A000F000002070B50F250368CE0801F00700840053F82600092A05FA04F520EA05050A
:2060C00014BF10460820A0402843082A43F8260007D10120DA6800FA01F122EA0101D96023
:2060E00070BD092AFCD10122D86802FA01F10143F5E708B5032000F0A1F9BDE80840032088
:2061000000F0B4B903681A6812F4985FFBD11A6842F480721A60704703681A6812F4985FA7
:20612000FBD11A6842F400721A600268136813F4985FFBD17047000070B502684568516993
:2061400092695A4AAE781268CB07044606F00106C26014D50023EB8000F0D8F82268536849
:2061600043F48063536026B12268136843F48063136000212B88226846EA4303136111F0A0
:206180000A0F10D0AB88002E45D0012B0AD122682046136823F480631360A38B012B37D947
:2061A000FFF7B0FF002101F08402802A03D1A38B002B49D1002101F08402842A0DD1A18B61
:2061C0002046002954D0FFF79DFF22685369D907FCD5002163680C3363604B0661D5236883
:2061E000AA681969EB88581CE880D154AB88EA88591E8A424BD122682046136823F480632E
:206200001360A38B022B3ED9BDE87040FFF77ABFFFF782FFC6E7012B08D9EB88A9685A1CEA
:20622000EA802268CB5C13613146BCE7002BFBD12046FFF771FF2268536823F40073536070
:20624000022384F82330ADE7EB88A9685A1CEA802268CB5C1361EA88AB889A42AAD12268A7
:20626000536823F480635360A38B013BA383A1E7FFF752FF2268536823F4007353600223B0
:2062800084F82330A9E7BDE87040FFF745BF9A4207D1A38B013B9BB2A3831BB9022384F84A
:2062A000233070BD63680C336360FAE7E428002008B50268536903F470638360002353611D
:2062C00002689361FFF728FF0268536823F4E0635360FF2380F8233008BD00000148FFF720
:2062E0002BBF00BFF80000200148FFF725BF00BF1C0100200148FFF7DBBF00BFF80000200E
:206300000148FFF7D5BF00BF1C01002010B50446002190F9210000F00FF894F9220000210D
:20632000BDE8104000F008B84AF6AA22014B1A60704700BF003000400028A8BF00F16040E0
:206340004FEA0111B8BF054BC9B2B5BF00F00F0000F56140195480F80013704714ED00E017
:2063600010B5002421F0604121F07F01064A0143916060B20F210134FFF7DEFF3C2CF8D1F1
:20638000F02382F8233010BD00ED00E00449054BCA6802F4E0621343CB60BFF34F8FFEE786
:2063A00000ED00E00400FA05014B13F810007047AC350308064B5A6822F0030202435A60DA
:2063C00080005A6802F00C028242FAD1704700BF00100240030AC2B2012003F1804303F5D3
:2063E0000433196890400843186070470121030A03F1804303F504331A68C0B201FA00F0A7
:2064000022EA000018607047030A03F1804303F504331A680223C0B203FA00F01040704741
:20642000054A0168536823F474130B43416809680B435360704700BF0010024010B504460B
:20644000FFF7B2FF074B53F82020074800EB4400437803EBC20301229B0003F184431A60D9
:2064600010BD00BF40010020AC35030810B50446FFF79AFF084B53F82020084800EB440048
:20648000437803EBC20301229B0003F184431A6000221A6010BD00BF58010020AC3503080E
:2064A00010B5054A054C536854F8200023EA00030B43536010BD00BF001002409835030889
:2064C00010B50446FFF770FF074B53F82020074800EB4400437803EBC20300229B0003F1CE
:2064E00084431A6010BD00BF4C010020AC35030801EBC000800000F184400260704710B5B7
:2065000004460079FFF79AFF2079BDE81040FFF7ADBF012206210068FFF7EABF002206219F
:206520000068FFF7E5BF10B50C46016803464A6822F0E0024A6002681268624012F4205F35
:2065400001D0FFF7EBFF1A6818461460BDE81040FFF7DFBF134343F004031943FFF7E3BF29
:206560000122006811460430FFF7C2BF0068002201210430FFF7BCBF00680122002104305D
:20658000FFF7B6BF002203685B0103F18443C3F880207047F8B51046069C9DF81C709DF87F
:2065A00020609DF8245081B10B2239462046FFF779FD042231462046FFF774FD0B2229469C
:2065C0002046BDE8F840FFF76DBD19460422FFF769FD042239462046FFF764FD0B22314671
:2065E0002046FFF75FFD0422E9E7FEE70722024B58601A60704700BF10E000E0044A136851
:2066000001331360034B1B6803B11847704700BFE4280020E811002011F0010F70B501F10C
:20662000FF340DBF082500256FF0FF016FF47F410068C4F34004183050F824601343314049
:20664000AB400B4340F8243070BD02684B1E02F1404220329B0003EBC20301229B0003F1AE
:2066600084431A607047000010B504460948A0470948A0470948A0470948A0470948A047FB
:206680000948A0470948A0472346BDE810400848184700BF84010020AC010020D00100205B
:2066A000F4010020180200203C020020480200205402002010B504460079FFF7BFFE207979
:2066C000BDE81040FFF7D2BE0023026813600268D3604279012A9CBF02681362704703794F
:2066E0001E2B10D9212B0ED0202B0ED9222B01D0252B04D102298CBF0020012070474B1EF2
:20670000584258417047012070470020704700008B1C40F82320012342798B4010B5DB4331
:20672000EAB1012A41F65F6218BF01221340012204682361036803F140430C3301EBC30368
:206740009B0003F184431A60427903793ABB072915D8DFE801F007151515151A1A1F41F683
:20676000FF62E3E71A2B0CBF19232C230122590903F01F0302FA03F3254A42F8213010BD00
:206780001A2B0CBF1B232E23F0E71A2B0CBF1A232D23EBE71A2B0CBF18232B23E6E71B3B58
:2067A0000C2BECD801A252F823F000BF0D680008E1670008E5670008E9670008ED6700084A
:2067C000F16700087F670008F5670008F9670008FD670008016800080568000809680008D4
:2067E0001D23C3E71E23C1E73223BFE73623BDE73723BBE71823B9E71923B7E71A23B5E744
:206800002B23B3E72C23B1E72D23AFE71C23ADE700E100E00022036803F140430C3301EB00
:20682000C3039B0003F1844302311A6040F82120704738B504460D4613460022FFF7ECFE7A
:2068400029462046BDE83840FFF7FFBE38B543790546022B0C4615D0042A13D8DFE802F069
:2068600003132A2D3A00FFF7D5FF0268631E02F1404220329B0003EBC20300229B0003F1F6
:2068800084431A6038BD0022036803F140430C3301EBC3039B0003F184431A600823602250
:2068A00021462846FFF7B8FE21462846BDE83840FFF7CBBE00231022F2E74FF2F112036809
:2068C0009A61032203689A60036801225B0103F18443D6E70122BDE83840FFF7AABF000032
:2068E00010B5074A1468E36821690B401B0606D5536A23B19847236923F08003236110BD07
:206900008401002010B5074A1468E36821690B40DB0706D5936823B19847236923F0010312
:20692000236110BD84010020F8B50C4D2F68FE683B691E4016F0400403D02C6A0CB1A04705
:206940004024B30604D5EB6913B1984744F020043B6923EA04043C61F8BD00BF8401002083
:20696000F8B5134D2F68FE683B691E4016F0100403D0AC690CB1A0471024310704D56B694C
:2069800013B1984744F00804720704D52B6913B1984744F00404B30704D5EB6813B19847C6
:2069A00044F002043B6923EA04043C61F8BD00BF84010020F8B51A4D2F68FE683B691E401B
:2069C00016F0400403D02C6A0CB1A0474024F30604D5AB6913B1984744F01004300704D51B
:2069E0006B6913B1984744F00804710704D52B6913B1984744F00404B20704D5EB6813B173
:206A0000984744F00204F30704D5AB6813B1984744F001043B6923EA04043C61F8BD00BFD1
:206A2000AC010020F8B51A4D2F68FE683B691E4016F0400403D02C6A0CB1A0474024F306C2
:206A400004D5AB6913B1984744F01004300704D56B6913B1984744F00804710704D52B69B2
:206A600013B1984744F00404B20704D5EB6813B1984744F00204F30704D5AB6813B19847EC
:206A800044F001043B6923EA04043C61F8BD00BFD0010020F8B51A4D2F68FE683B691E40EF
:206AA00016F0400403D02C6A0CB1A0474024F30604D5AB6913B1984744F01004300704D53A
:206AC0006B6913B1984744F00804710704D52B6913B1984744F00404B20704D5EB6813B192
:206AE000984744F00204F30704D5AB6813B1984744F001043B6923EA04043C61F8BD00BFF1
:206B0000F4010020F8B51A4D2F68FE683B691E4016F0400403D02C6A0CB1A0474024F30699
:206B200004D5AB6913B1984744F01004300704D56B6913B1984744F00804710704D52B69D1
:206B400013B1984744F00404B20704D5EB6813B1984744F00204F30704D5AB6813B198470B
:206B600044F001043B6923EA04043C61F8BD00BF1802002010B5074A1468E36821690B4026
:206B8000DB0706D5936823B19847236923F00103236110BD3C02002010B5074A1468E3685B
:206BA00021690B40DB0706D5936823B19847236923F00103236110BD4802002010B5074A21
:206BC0001468E36821690B401B0606D5536A23B19847236923F08003236110BD54020020C4
:206BE00010B5074A1468E36821690B40DB0706D5936823B19847236923F00103236110BD84
:206C000054020020F8B50C4D2F68FE683B691E4016F0400403D02C6A0CB1A0474024B30685
:206C200004D5EB6913B1984744F020043B6923EA04043C61F8BD00BF54020020F8B5134DDF
:206C40002F68FE683B691E4016F0100403D0AC690CB1A0471024310704D56B6913B19847D3
:206C600044F00804720704D52B6913B1984744F00404B30704D5EB6813B1984744F002044C
:206C80003B6923EA04043C61F8BD00BF5402002000223F2110B50446436810309A801860A6
:206CA000DA801981A3689A80DA8004F1500219811A6094F89000FFF7C1FB94F99130002BBF
:206CC00008DB0122591103F01F0302FA03F3024A42F8213010BD00BF00E100E00368DA686C
:206CE00042F02C02DA60DA6842F40052DA60704710B5036881688C88CA8892B2A242FAD1CD
:206D0000DA68910402D51A685206F9D5DA6822F40052DA60426893889BB2D38082689388CF
:206D20009BB2D38010BDF0B50B4606460468B568581AAF88ED88ADB2BD4204D125682D060A
:206D400001D5824210D8E36823F08003E3609042B3680DD39A88DB889BB293421EBFE368F1
:206D600043F08003E360F0BD13F8010B6060DEE7DD889F880135BD42ECD0DF881D89ADB2E8
:206D8000BD4203D19D88ADB2002DE3D0DD8811F800C01F68ADB207F805C0DF881D890130A6
:206DA000ADB2BD420FBF0025DD880135ADB2DD80CDE703468288016892B2885C99881A89CF
:206DC000C0B292B28A420FBF00229A88013292B29A80704738B5C388828801339342044642
:206DE0000D4607D0C28803899BB2934214D183889BB28BB92046FFF7DCFFE38822689BB277
:206E0000D554E28823899BB293420FBF0023E38801339BB2E38038BD4FF0FF30EDE770B575
:206E20001E460546084611460422059CFFF73AF90B229DF810103046FFF734F9296863029D
:206E4000CA6803F4F05322F4F0521204120C1343CB602A682402136904F4405423F440534F
:206E60001B041B0C1C43146170BD38B50546144611B900F0FDF8014619235943A200B1FB1D
:206E8000F2F26421B2FBF1F001FB10231B013233B3FBF1F303F00F032C6843EA00139BB293
:206EA000A36038BD10B50446084B1868A047084B1868A047074B1868A047074B1868A047E5
:206EC000064B18682346BDE81040184784020020880200208C0200207C02002080020020E6
:206EE00010B5104CE368980607D52368990604D561680D48C9B2FFF76DFFE3681A060BD563
:206F000023681B0608D509488288C3889BB2934203D0FFF74EFF606010BDE36823F080039C
:206F2000E360F9E7003801401C1200202812002010B5104CE368980607D52368990604D524
:206F400061680D48C9B2FFF745FFE3681A060BD523681B0608D509488288C3889BB29342C2
:206F600003D0FFF726FF606010BDE36823F08003E360F9E700440040341200204012002036
:206F800010B5104CE368980607D52368990604D561680D48C9B2FFF71DFFE3681A060BD512
:206FA00023681B0608D509488288C3889BB2934203D0FFF7FEFE606010BDE36823F080034D
:206FC000E360F9E7004800404C1200205812002010B5104CE368980607D52368990604D515
:206FE00061680D48C9B2FFF7F5FEE3681A060BD523681B0608D509488288C3889BB2934273
:2070000003D0FFF7D6FE606010BDE36823F08003E360F9E7004C0040EC110020F811002070
:2070200010B5104CE368980607D52368990604D561680D48C9B2FFF7CDFEE3681A060BD5C2
:2070400023681B0608D509488288C3889BB2934203D0FFF7AEFE606010BDE36823F08003FC
:20706000E360F9E700500040041200201012002008B590F89000FFF797F920B10128034845
:2070800018BF002008BD0248FCE700BF00A24A040051250230B548F28005094C226822F447
:2070A000804222F070022A4342402260236823F4E04323F040032B434B40236030BD00BFD6
:2070C000005C0040284B072818BF18701A78052A48D8DFE802F003131E232B364FF6FB7110
:2070E000224A106C014011644FF43F41116406221A701F4B1B685A7B1A7370474FF6FB7151
:207100001A4A106C014011644FF43F411164042202E002225A7003221A7006E05A78013A09
:20712000D2B25A705A78002AF1D070470F490A6C92B242F010020A6405221A700A225A7022
:2071400070475A78013AD2B25A705A78002AECD14FF6EF720549086C02400A64044A126884
:20716000517B11730622D7E7E8280020005C00407405002070B50446807B0E461546FFF765
:207180005DF9084A084B09491A60094B09480B600949C4E901650860022111721B68BDE87D
:2071A0007040184700290020F8280020F028002098050020E4050020F42800202DE9F041B6
:2071C0005F4D604A2B68546C1B68A4B223405E0506D56FF4806353645B4B1B685B689847C4
:2071E0002A6813682340980442BF6FF40051554B596413682340D90406D56FF4C052514BCA
:2072000000205A64FFF75EFF2B681A68224012050FD54C490A6C92B242F0080042F00C0202
:2072200008640A641A7B5A7303221A736FF4C0524A641A682240970542BF6FF40071414A5D
:2072400051641B682340DE0506D56FF480723D4B07205A64FFF736FF2B681B681C4024044E
:2072600003D5384C676C3B0401D4BDE8F0816FF4004317F00F06636438D148F68003D4F896
:20728000008018EA030FECD01FFA88F32F4D304E03F440524FF4005003F0300320213380DA
:2072A0002A80FFF7F7FEF80623680ED423F4E14323F070031B041B0C236000F009FF318893
:2072C0002888BDE8F041FFF7E5BE18F0800FEDD123F070031B051B0D18F4006F236002D09C
:2072E00000F014FDEBE700F071FEE8E7B40004F1804404F5B844276839040DD5236823F0DF
:2073000070031B051B0D23602A6806F180439268013B52F8233098473A06A2D5236806F1F8
:20732000804623F4E14323F070031B041B0C23602B68013E5B6853F82630984791E700BFB1
:2073400074050020005C0040F0280020EA280020EC280020800000F1804000F5B8400368D1
:2073600023F4804323F0700343F4004343F08003594001607047000018B90722024B1B6802
